:100000000C9463000C9434090C9461090C948B00DB
:100010000C948B000C948B000C948B000C948B0034
:100020000C948B000C948B000C948B000C948B0024
:100030000C948B000C948B000C948B000C948B0014
:100040000C942D010C948B000C94F0020C943E0344
:100050000C948B000C948B000C948B000C948B00F4
:100060000C948B000C948B000000000024002700EF
:100070002A0000000000250028002B0000000000DE
:1000800023002600290004040404040404040202DA
:100090000202020203030303030301020408102007
:1000A0004080010204081020010204081020000012
:1000B0000007000201000003040600000000000029
:1000C00000009000AA0411241FBECFEFD8E0DEBFCD
:1000D000CDBF11E0A0E0B1E0ECEDF3E102C005908E
:1000E0000D92A831B107D9F712E0A8E1B1E001C043
:1000F0001D92AF31B107E1F710E0C6ECD0E004C0CB
:100100002297FE010E94E809C23CD107C9F70E946C
:1001100052050C948D000C940000F8940C94EC099A
:1001200085E191E090931901809318018AE0809312
:100130001A0182E080931B0181E0809310021092EB
:100140001D018FE180931E0110921F010895DF921F
:10015000EF92FF920F931F93D82E7B0161E00E94D4
:1001600009028D2D61E00E9448020027F7FC0095EE
:10017000102FC801B7010E9475018D2D60E00E940B
:1001800048021F910F91FF90EF90DF9008951F9309
:1001900088E191E00E94BF06882351F110E00AC077
:1001A000E12FF0E0ED52FE4F608181EB91E00E9483
:1001B0002A051F5F80911102181790F381EB91E0DF
:1001C0000E94320580911502882369F088E191E050
:1001D00060E071E040E00E9409086AE070E080E0C1
:1001E00090E00E94750189E064E670E00E94A7003B
:1001F0006AEF70E080E090E00E94750189E064E6BB
:1002000070E00E94A7001F9108950F931F9381EB48
:1002100091E040E052EC61E070E00E94790308E177
:1002200011E0C8016BE541E022E00E942D08C80101
:1002300061E00E94CF05C80160E070E00E94D40632
:10024000C80160E00E946D056AE070E080E090E027
:100250000E9475011F910F9108951F920F920FB682
:100260000F9211242F933F938F939F93AF93BF933C
:100270008091240190912501A0912601B091270140
:10028000309128010196A11DB11D232F2D5F2D371F
:1002900020F02D570196A11DB11D209328018093B8
:1002A000240190932501A0932601B093270180910A
:1002B000200190912101A0912201B091230101968A
:1002C000A11DB11D8093200190932101A0932201D3
:1002D000B0932301BF91AF919F918F913F912F9147
:1002E0000F900FBE0F901F9018959B01AC017FB728
:1002F000F8948091200190912101A0912201B09168
:10030000230166B5A89B05C06F3F19F00196A11D9A
:10031000B11D7FBFBA2FA92F982F8827860F911D57
:10032000A11DB11D62E0880F991FAA1FBB1F6A950E
:10033000D1F7BC012DC0FFB7F894809120019091B6
:100340002101A0912201B0912301E6B5A89B05C02F
:10035000EF3F19F00196A11DB11DFFBFBA2FA92FC4
:10036000982F88278E0F911DA11DB11DE2E0880FE7
:10037000991FAA1FBB1FEA95D1F7861B970B885EB2
:100380009340C8F2215030404040504068517C4F6B
:10039000211531054105510571F60895789484B50C
:1003A000826084BD84B5816084BD85B5826085BD71
:1003B00085B5816085BDEEE6F0E080818160808357
:1003C000E1E8F0E01082808182608083808181603A
:1003D0008083E0E8F0E0808181608083E1EBF0E001
:1003E000808184608083E0EBF0E0808181608083A5
:1003F000EAE7F0E08081846080838081826080838E
:100400008081816080838081806880831092C100B8
:100410000895CF93DF93482F50E0CA0186569F4F2F
:10042000FC0134914A575F4FFA018491882369F1A6
:1004300090E0880F991FFC01E859FF4FA591B491F6
:10044000FC01EE58FF4FC591D491662351F42FB7AC
:10045000F8948C91932F909589238C93888189238C
:100460000BC0623061F42FB7F8948C91932F909564
:1004700089238C938881832B88832FBF06C09FB7E5
:10048000F8948C91832B8C939FBFDF91CF9108952B
:10049000482F50E0CA0182559F4FFC012491CA01A8
:1004A00086569F4FFC0194914A575F4FFA01349151
:1004B000332309F440C0222351F1233071F024305A
:1004C00028F42130A1F0223011F514C02630B1F00B
:1004D0002730C1F02430D9F404C0809180008F7798
:1004E00003C0809180008F7D8093800010C084B510
:1004F0008F7702C084B58F7D84BD09C08091B00024
:100500008F7703C08091B0008F7D8093B000E32F80
:10051000F0E0EE0FFF1FEE58FF4FA591B4912FB7FB
:10052000F894662321F48C919095892302C08C91D4
:10053000892B8C932FBF0895682F70E0CB018255D3
:100540009F4FFC012491CB0186569F4FFC014491A3
:100550006A577F4FFB019491992319F420E030E012
:100560003CC0222351F1233071F0243028F4213093
:10057000A1F0223011F514C02630B1F02730C1F0BF
:100580002430D9F404C0809180008F7703C080911B
:1005900080008F7D8093800010C084B58F7702C06B
:1005A00084B58F7D84BD09C08091B0008F7703C072
:1005B0008091B0008F7D8093B000892F90E0880FEC
:1005C000991F84589F4FFC01A591B4918C9120E014
:1005D00030E0842311F021E030E0C901089508954E
:1005E0001F920F920FB60F9211242F933F934F93A8
:1005F0008F939F93EF93FF938091C00082FD1DC066
:100600004091C6002091690130916A012F5F3F4FF0
:100610002F73307080916B0190916C01281739070E
:1006200071F0E0916901F0916A01E75DFE4F40834E
:1006300030936A012093690102C08091C600FF9146
:10064000EF919F918F914F913F912F910F900FBEFE
:100650000F901F901895E091BD01F091BE01E05CF4
:10066000FF4F8191919120813181821B930B8F7378
:100670009070892B11F00E94EF0208951F920F9243
:100680000FB60F9211242F933F938F939F93EF9365
:10069000FF932091AD013091AE018091AF01909117
:1006A000B0012817390731F48091C1008F7D809304
:1006B000C10014C0E091AF01F091B001E359FE4FC9
:1006C00020818091AF019091B00101968F7390705D
:1006D0009093B0018093AF012093C600FF91EF91FA
:1006E0009F918F913F912F910F900FBE0F901F9070
:1006F0001895AF92BF92DF92EF92FF920F931F93E4
:10070000CF93DF93EC017A018B01DD24403081EE41
:10071000580780E0680780E0780711F0DD24D39463
:1007200091E0A92EB12CEC89FD89DD2069F0C5018D
:1007300008A002C0880F991F0A94E2F7808360E046
:1007400079E08DE390E005C0108260E874E88EE106
:1007500090E0A80197010E94C40921503040404018
:100760005040569547953795279580E120303807BA
:1007700020F0DD2011F0DD24D6CFE889F98930831F
:10078000EA89FB89208319A2EE89FF89408121E053
:1007900030E0C9010C8C02C0880F991F0A94E2F75F
:1007A000482B4083EE89FF894081C9010D8C02C02E
:1007B000880F991F0A94E2F7482B4083EE89FF893E
:1007C0004081C9010E8C02C0880F991F0A94E2F77C
:1007D000482B4083EE89FF8980810F8C02C0220F55
:1007E000331F0A94E2F7209528232083DF91CF91CD
:1007F0001F910F91FF90EF90DF90BF90AF90089501
:10080000DC011C96ED91FC911D97E05CFF4F21915E
:10081000319180819181281B390B2F733070C90170
:100820000895DC011C96ED91FC911D97E05CFF4F53
:1008300020813181E054F040DF01AE5BBF4F8D91EC
:100840009C9111972817390719F42FEF3FEF07C034
:100850008D919C91E80FF91F8081282F30E0C9010C
:100860000895DC011C96ED91FC911D97E05CFF4F13
:1008700020813181E054F040DF01AE5BBF4F8D91AC
:100880009C9111972817390719F42FEF3FEF10C0EB
:100890008D919C911197E80FF91F20818D919C916A
:1008A000119701968F73907011969C938E9330E000
:1008B000C9010895DC0191968C919197882339F0B4
:1008C0005496ED91FC915597808186FFF9CF9196D2
:1008D0001C920895CF93DF93EC01EE85FF85E05CD9
:1008E000FF4F20813181E054F0402F5F3F4F2F7345
:1008F0003070DF01AE5BBF4F8D919C91119728172F
:100900003907D1F3E05CFF4F80819181E054F040E2
:10091000E80FF91F6083EE85FF85E05CFF4F3183B0
:100920002083EE89FF89208181E090E00F8C02C056
:10093000880F991F0A94E2F7282B208381E089A36E
:10094000EC89FD8980818064808381E090E0DF9183
:10095000CF9108951092B4011092B30188EE93E004
:10096000A0E0B0E08093B5019093B601A093B701E9
:10097000B093B80185E091E09093B2018093B1010A
:1009800089E291E09093BE018093BD018DE691E0F4
:100990009093C0018093BF0185EC90E09093C201D9
:1009A0008093C10184EC90E09093C4018093C301D3
:1009B00080EC90E09093C6018093C50181EC90E0BB
:1009C0009093C8018093C70182EC90E09093CA0194
:1009D0008093C90186EC90E09093CC018093CB0189
:1009E00084E08093CD0183E08093CE0187E0809303
:1009F000CF0185E08093D00181E08093D1010895FB
:100A0000CF92DF92EF92FF920F931F93CF93DF93DA
:100A10007C016B018A01C0E0D0E00FC0D6016D916E
:100A20006D01D701ED91FC910190F081E02DC7019E
:100A30000995C80FD91F015010400115110571F714
:100A4000CE01DF91CF911F910F91FF90EF90DF903A
:100A5000CF900895DC01ED91FC910190F081E02DA3
:100A600009950895EF92FF920F931F938C01DC017B
:100A7000ED91FC910190F081E02D6DE009957C01F4
:100A8000D801ED91FC910190F081E02DC8016AE060
:100A900009959C012E0D3F1DC9011F910F91FF90DB
:100AA000EF900895CF93DF930E94CE010E9405013D
:100AB000CBE2D3E00E94C7002097E1F30E942B0312
:100AC000F9CFE0911902F0911A02A081B1812D9124
:100AD0003C91CF01F90109950895FC0165830895C2
:100AE000FC01828161E00E94480278940895FC0133
:100AF000F894828160E00E94480208950F931F934A
:100B0000CF93DF93EC01162F042F0E947705106816
:100B10001EBD0DB407FEFDCF8EB50EBD0DB407FE94
:100B2000FDCF8EB5CE010E947005DF91CF911F9150
:100B30000F9108951F93CF93DF93EC01162F662337
:100B400011F445E501C04DE5CE016AE50E947E0540
:100B5000112311F440E701C04CE7CE016CE50E947F
:100B60007E05DF91CF911F9108951F93CF93DF935F
:100B7000EC01162F0E9477051F771EBD0DB407FEEE
:100B8000FDCF8EB51EBC0DB407FEFDCF1EB5CE0148
:100B90000E947005812FDF91CF911F910895CF930F
:100BA000DF93EC016F83662311F44AE101C04FE04B
:100BB000CE0163E10E947E058F81882341F0CE0142
:100BC00061E10E94B505482F4F71406602C04E8119
:100BD0004068CE0161E10E947E05DF91CF910895CA
:100BE000CF93DF93EC01662351F063E241E00E9472
:100BF0007E05CE0163E20E94B50581FFFACFCE01EA
:100C000064E20E94B505282F30E0309521953F4FD2
:100C100035952795C901DF91CF9108951F93CF9303
:100C2000DF93EC01162F80911002681709F459C068
:100C3000623089F1633030F46623E9F1613009F004
:100C400050C031C06330A1F0643009F04AC0CE0119
:100C500061E00E94B505482F437E4C60CE0161E003
:100C60000E947E058F81882381F1CE0161E010C052
:100C7000CE0161E00E94B505482F437E4061CE0160
:100C800061E00E947E058F818823F9F0CE0160E04B
:100C90000E949A051AC0CE0161E00E94B505482F56
:100CA000437E48600EC0CE0161E00E94B505482F2A
:100CB000437E446006C0CE0161E00E94B505482F26
:100CC000437ECE0161E00E947E0580911002882360
:100CD00031F4CE0167E20E94B5058823B4F7109382
:100CE0001002DF91CF911F910895CF93DF93EC0114
:100CF00080911002833089F480911402882369F472
:100D0000CE0160E00E94F005865A9F4F34F4CE0178
:100D100061E00E940E0681E001C080E0DF91CF918A
:100D20000895CF93DF93EC011092110210921202FA
:100D300010921302109214021092150210921602D1
:100D4000109218021092170268E20E94B50582FF05
:100D50000AC0CE016DE30E94B505482F4460CE0164
:100D60006DE30E947E05CE0165E240E40E947E05AF
:100D7000CE0163E00E940E06DF91CF9108959C01A1
:100D8000F89480911002833051F4809114028823EA
:100D900031F0C90161E00E940E0681E00895C901A9
:100DA0000E94910680E008950F931F93CF93DF93E5
:100DB000EC018B0161E00E940E0601151105E1F0C6
:100DC000CE010E9477058EEB8EBD0DB407FEFDCFE0
:100DD0008EB520E030E0F801E20FF31F80818EBD78
:100DE0000DB407FEFDCF8EB52F5F3F4F203131058B
:100DF00091F7CE010E947005CE016DE30E94B5050A
:100E0000482F4E7F80E0012B09F081E0482BCE0176
:100E10006DE30E947E05DF91CF911F910F910895A0
:100E2000CF93DF93EC0180911002833009F067C00B
:100E3000CE0168E20E94B50582FF61C0CE0161E08B
:100E40000E940E06CE010E9477051EBC0DB407FE5F
:100E5000FDCF8EB51EBC0DB407FEFDCF8EB58093C1
:100E6000140280911402833410F082E402C0809155
:100E70001402809314021EBC0DB407FEFDCF8EB584
:100E8000809313028D81882309F042C09091130250
:100E90008C819817E9F1809113028823C9F110928F
:100EA0001402CE010E9470053AC00DB407FEFDCFBA
:100EB0008EB5809312021EBC0DB407FEFDCF8EB519
:100EC000982F90789093160280748093150290E08A
:100ED0000BC01EBC0DB407FEFDCF8EB5E92FF0E0B0
:100EE000ED52FE4F80839F5F80911102981788F327
:100EF000CE010E947005CE0163E00E940E06CE0175
:100F000060E00E94F005909318028093170207C0DA
:100F1000809114028350809311021EBCC6CFDF91D2
:100F2000CF910895CF92DF92EF92FF920F931F938C
:100F3000CF93DF93EC01F62ED42EC52E122F61E055
:100F40000E940E06CE0167E20E94B50587FFFACF28
:100F5000CE0165E240E00E947E051E3308F01DE3ED
:100F6000CE010E94770580E88EBD0DB407FEFDCF4F
:100F70008EB51D5F1EBD13500DB407FEFDCF8EB59F
:100F8000FEBC0DB407FEFDCF8EB58C818EBD0DB4B9
:100F900007FEFDCF8EB5EE2031F080E88EBD0DB49A
:100FA00007FEFDCF07C0002361F080E48EBD0DB4C5
:100FB00007FEFDCF8EB58D2D9C2D9C01F90190E093
:100FC0000DC01EBC0DB407FEFDCFF4CF80818EBDD9
:100FD0000DB407FEFDCF8EB59F5F31969117B0F32C
:100FE000CE010E947005CE0164E00E940E068B8146
:100FF0000E949C02892BD9F3CE0161E00E940E066B
:10100000DF91CF911F910F91FF90EF90DF90CF90E4
:101010000895EF92FF920F931F93CF93DF93EC010C
:101020008B01F42EE090120203C0CE010E94BF0695
:10103000CE010E9475068823C1F3CE016E2DA80152
:101040002F2D00E0EE24E3940E949207DF91CF91D0
:101050001F910F91FF90EF900895CF92DF92EF9242
:10106000FF920F931F93DF93CF93CDB7DEB7AA976D
:101070000FB6F894DEBF0FBECDBF7C01042F522FF8
:101080006F3119F430EC4EE40EC06B3211F44CE6C3
:10109000C6C0663509F0BFC049ED04C0663511F021
:1010A00030EC01C030E0FE0131968AE2DF011D9292
:1010B0008A95E9F781E0898394E09A8382E08B83C3
:1010C00023E02D838E839F8390E4988785E0898732
:1010D0002A8786E08B8783E38C8787E08D8788E08B
:1010E0008F8789E0898B89E18B8B22E42C8B85E2C9
:1010F0008D8B9E8B89E28F8B8CED888F8EE2898F12
:1011000088E88A8F8FE28B8F8DE28C8F90E39D8FA2
:1011100087E38F8F80E988A388E389A32AA38CE3E0
:101120008BA38FE88CA38DE38DA382E18EA38FE642
:101130008FA398A78FEF89A74E87388B5E8FF70113
:10114000828161E00E94090280E00E94970981E0AB
:101150000E948E0984E00E949C090E94AD09C7018B
:101160006FE24AEA0E947E05C7016FE20E94B50560
:101170008A3AA9F7C7016FE245E50E947E05C701DB
:101180006FE20E94B5058535A9F710E06E0108945D
:10119000C11CD11C05C0C70141810E947E051F5F93
:1011A000E12FF0E0EE0FFF1FEC0DFD1D60816F3FA2
:1011B00091F7C70160E070E00E94D406C701D70133
:1011C00017966C910E94CF05C70161E00E940E0640
:1011D000C70167E20E94B50587FFFACF80E061E6AC
:1011E00075E043E050E00E941109F0921A02E0928B
:1011F0001902F701048381E0AA960FB6F894DEBFC6
:101200000FBECDBFCF91DF911F910F91FF90EF9057
:10121000DF90CF90089544EE6B3209F03FCF30E479
:1012200042CF823000F5E82FF0E0EE0FFF1FE55EC1
:10123000FD4F71836083882319F08130A1F408C0C9
:10124000809169008C7F842B80936900E89A0895CF
:1012500080916900440F551F440F551F837F842BD5
:1012600080936900E99A08951F920F920FB60F922A
:1012700011242F933F934F935F936F937F938F939B
:101280009F93AF93BF93EF93FF9380911B02909135
:101290001C02892B29F0E0911B02F0911C02099598
:1012A000FF91EF91BF91AF919F918F917F916F913E
:1012B0005F914F913F912F910F900FBE0F901F9014
:1012C00018951F920F920FB60F9211242F933F93F0
:1012D0004F935F936F937F938F939F93AF93BF933E
:1012E000EF93FF9380911D0290911E02892B29F0AC
:1012F000E0911D02F0911E020995FF91EF91BF91BF
:10130000AF919F918F917F916F915F914F913F919D
:101310002F910F900FBE0F901F901895882319F4EE
:101320008CB5806202C08CB58F7D8CBD08959CB554
:10133000937F982B9CBD08952CB5382F33702C7F4C
:10134000322B3CBD2DB590E0959587959595879569
:1013500081702E7F822B8DBD08958AE061E00E940E
:1013600048028AE061E00E9409028CB580618CBD70
:101370008CB580648CBD8DE061E00E9409028BE039
:1013800061E00E9409020895A1E21A2EAA1BBB1B6C
:10139000FD010DC0AA1FBB1FEE1FFF1FA217B30741
:1013A000E407F50720F0A21BB30BE40BF50B661F57
:1013B000771F881F991F1A9469F76095709580951B
:1013C00090959B01AC01BD01CF010895EE0FFF1F69
:0C13D0000590F491E02D0994F894FFCFF3
:1013DC0000000000006A0400050004310411045AE6
:0813EC000400000000100700DE
:00000001FF
