:100000000C9463000C944A0B0C94770B0C948B00AB
:100010000C948B000C948B000C94130B0C948B00A1
:100020000C948B000C948B000C948B000C948B0024
:100030000C948B000C948B000C948B000C948B0014
:100040000C9415040C948B000C94A50B0C94F30BDE
:100050000C948B000C948B000C948B000C948B00F4
:100060000C948B000C948B000000000024002700EF
:100070002A0000000000250028002B0000000000DE
:1000800023002600290004040404040404040202DA
:100090000202020203030303030301020408102007
:1000A0004080010204081020010204081020000012
:1000B0000007000201000003040600000000000029
:1000C00000003103D80C11241FBECFEFD8E0DEBFF3
:1000D000CDBF11E0A0E0B1E0E8E7FFE102C005908C
:1000E0000D92AA31B107D9F712E0AAE1B1E001C03F
:1000F0001D92A633B107E1F710E0C6ECD0E004C0D2
:100100002297FE010E94B60FC23CD107C9F70E9498
:1001100007060C948D000C940000F8940C94BA0F10
:10012000AEE0B0E0E6E9F0E00C948B0F0D891E899B
:1001300086E08C831A8309838FEF9FE79E838D83EC
:100140009E01275E3F4FCE0101966F89788DA901F0
:100150000E94B4002F813885020F131FF80110820E
:100160002E96E4E00C94A70FABE0B0E0EAEBF0E0F1
:100170000C947D0F3C012B015A01FC011782168261
:10018000838181FD03C06FEF7FEFC6C19AE0892EA6
:100190001E010894211C311CF3012381F20123FD6F
:1001A000859123FF81912F01882309F4B2C1853203
:1001B00039F423FD859123FF81912F01853229F4A4
:1001C00090E0B3010E94A702E7CF982FFF24EE240E
:1001D0009924FFE1FF15D0F09B3269F09C3228F49E
:1001E000903259F0933291F40EC09D3249F0903321
:1001F00069F441E024C052E0F52A84E0F82A28C0DE
:1002000098E0F92A25C0E0E1FE2A22C0F7FC29C0C7
:10021000892F80538A3070F4F6FE05C0989C902C8C
:100220001124980E15C0E89CE02C1124E80EF0E291
:10023000FF2A0EC09E3229F4F6FC6BC140E4F42A7A
:1002400007C09C3619F450E8F52A02C0983649F4E4
:10025000F20123FD959123FF91912F01992309F03C
:10026000B8CF892F8554833018F08052833038F40A
:1002700044E050E0A40EB51E5FE359830FC09336EF
:1002800031F0933779F0933509F056C020C0F5016D
:100290008081898342E050E0A40EB51E610101E037
:1002A00010E012C0F501C080D180F6FC03C06FEFF2
:1002B0007FEF02C0692D70E042E050E0A40EB51E51
:1002C000C6010E949C028C015FE7F52214C0F50173
:1002D000C080D180F6FC03C06FEF7FEF02C0692DB4
:1002E00070E042E050E0A40EB51EC6010E949102EB
:1002F0008C0150E8F52AF3FE07C01AC080E290E0B6
:10030000B3010E94A702EA948E2D90E00817190706
:10031000A8F30EC0F601F7FC8591F7FE81916F01FD
:1003200090E0B3010E94A702E110EA94015010404E
:100330000115110579F7EAC0943611F0993669F57F
:10034000F7FE08C0F501208131814281538184E0AC
:1003500090E00AC0F501808191819C01442737FD1E
:100360004095542F82E090E0A80EB91E9FE6F92236
:1003700057FF09C050954095309521953F4F4F4FFD
:100380005F4FE0E8FE2ACA01B901A1012AE030E08E
:100390000E94D302D82ED21840C0953729F41F2DC1
:1003A0001F7E2AE030E01DC01F2D197F9F3661F0AF
:1003B000903720F4983509F0ACC00FC0903739F071
:1003C000983709F0A6C004C028E030E00AC01061E8
:1003D00014FD146020E130E004C014FD166020E13B
:1003E00032E017FF08C0F50160817181828193813D
:1003F00044E050E008C0F50180819181BC0180E0BB
:1004000090E042E050E0A40EB51EA1010E94D3028C
:10041000D82ED2188FE7F82EF122F6FE0BC05EEF31
:10042000F522D91438F4F4FE07C0F2FC05C08FEEB3
:10043000F82202C01D2D01C0192DF4FE0DC0FE01D1
:10044000ED0DF11D8081803319F499EEF92208C079
:100450001F5FF2FE05C003C08F2D867809F01F5F75
:100460000F2DF3FC14C0F0FE0FC01E1510F09D2CD4
:100470000BC09D2C9E0C911A1E2D06C080E290E0B0
:10048000B3010E94A7021F5F1E15C0F304C01E1512
:1004900010F4E11A01C0EE2404FF0FC080E390E0E5
:1004A000B3010E94A70202FF1DC001FD03C088E73F
:1004B00090E00EC088E590E00BC0802F867891F028
:1004C00001FF02C08BE201C080E2F7FC8DE290E008
:1004D000B3010E94A70206C080E390E0B3010E942E
:1004E000A7029A94D914C0F3DA94F101ED0DF11D2D
:1004F000808190E0B3010E94A702DD20A9F706C029
:1005000080E290E0B3010E94A702EA94EE20C1F7D6
:1005100043CEF30166817781CB012B96E2E10C9407
:10052000990FFC010590615070400110D8F780953B
:1005300090958E0F9F1F0895FC01615070400190AF
:100540000110D8F7809590958E0F9F1F08950F93F7
:100550001F93CF93DF938C01EB018B8181FF1BC035
:1005600082FF0DC02E813F818C819D812817390724
:1005700064F4E881F9810193F983E88306C0E88592
:10058000F985802F0995892B31F48E819F81019601
:100590009F838E8302C00FEF1FEFC801DF91CF91C1
:1005A0001F910F910895FA01AA27283051F12031A7
:1005B00081F1E8946F936E7F6E5F7F4F8F4F9F4FF7
:1005C000AF4FB1E03ED0B4E03CD0670F781F891F39
:1005D0009A1FA11D680F791F8A1F911DA11D6A0F07
:1005E000711D811D911DA11D20D009F468943F91BA
:1005F0002AE0269F11243019305D3193DEF6CF01B9
:100600000895462F4770405D4193B3E00FD0C9F77E
:10061000F6CF462F4F70405D4A3318F0495D31FDEB
:100620004052419302D0A9F7EACFB4E0A69597953E
:10063000879577956795BA95C9F700976105710514
:1006400008959B01AC010A2E06945795479537955E
:100650002795BA95C9F7620F731F841F951FA01DB8
:10066000089588E091E090931B0180931A018AE03D
:1006700080931C0182E080931D0181E080937C01C6
:1006800010921F018FE180932001109221010895A3
:100690008F929F92AF92BF92CF92DF92EF92FF9292
:1006A0000F931F93CF93DF9380E00E94FF04AA274C
:1006B00097FDA095BA2FBC01CD010E948E0E23E3B9
:1006C00033E343E550E40E941A0F20E030E040E8B5
:1006D0005AE30E941A0F20E030E040E05FE30E94FE
:1006E0008E0D2AE037ED43E25CE30E94F30D26E62F
:1006F00036E646EE5FE30E941A0F00D000D000D02D
:10070000EDB6FEB60894E11CF11C02E211E0EDB773
:10071000FEB71283018320E031E0F70133832283A7
:1007200020E030E040E052E40E948F0D20E030E015
:1007300048EC52E40E941A0F0E945B0EF701758389
:1007400064830E949000F80101900020E9F731973E
:10075000E01BF10B8DB79EB706960FB6F8949EBFBF
:100760000FBE8DBF8AE191E061E0A8012E2F02E06B
:100770003FE0E32E0E94FF08C0E0D0E087E891E070
:1007800068E070E040E050E020E030E000E010E0A1
:10079000EE24FF24CC24DD24AA24BB24882499241D
:1007A0000E94310A89E061E00E94210589E061E050
:1007B0000E94600564E670E080E090E00E946B04B7
:1007C00089E060E00E9460052196CF30D105B1F646
:1007D000DF91CF911F910F91FF90EF90DF90CF901D
:1007E000BF90AF909F908F9008950F931F930AE151
:1007F00011E0C8016BE542E022E00E944D09C8010A
:1008000061E00E948406C80160E00E942206C801DF
:1008100060E070E00E949E0768EE73E080E090E088
:100820000E946B041F910F9108951F920F920FB6B3
:100830000F9211242F933F938F939F93AF93BF9366
:1008400080913A0190913B01A0913C01B0913D0112
:1008500030913E010196A11DB11D232F2D5F2D3733
:1008600020F02D570196A11DB11D20933E018093CC
:100870003A0190933B01A0933C01B0933D018091DC
:10088000360190913701A0913801B091390101965C
:10089000A11DB11D8093360190933701A0933801BB
:1008A000B0933901BF91AF919F918F913F912F915B
:1008B0000F900FBE0F901F9018958FB7F89420914E
:1008C0003A0130913B0140913C0150913D018FBF75
:1008D000B901CA0108959B01AC017FB7F8948091DA
:1008E000360190913701A0913801B091390166B578
:1008F000A89B05C06F3F19F00196A11DB11D7FBFD8
:10090000BA2FA92F982F8827860F911DA11DB11DE1
:1009100062E0880F991FAA1FBB1F6A95D1F7BC011F
:100920002DC0FFB7F8948091360190913701A091C6
:100930003801B0913901E6B5A89B05C0EF3F19F029
:100940000196A11DB11DFFBFBA2FA92F982F88278F
:100950008E0F911DA11DB11DE2E0880F991FAA1FE6
:10096000BB1FEA95D1F7861B970B885E9340C8F2B0
:10097000215030404040504068517C4F2115310596
:100980004105510571F60895789484B5826084BD5F
:1009900084B5816084BD85B5826085BD85B5816083
:1009A00085BDEEE6F0E0808181608083E1E8F0E0E3
:1009B0001082808182608083808181608083E0E812
:1009C000F0E0808181608083E1EBF0E080818460F1
:1009D0008083E0EBF0E0808181608083EAE7F0E0F3
:1009E0008081846080838081826080838081816057
:1009F00080838081806880831092C1000895982F41
:100A00008E3008F09E509770809103018295880F78
:100A1000880F807C892B80937C0080917A00806491
:100A200080937A0080917A0086FDFCCF2091780037
:100A300040917900942F80E030E0282B392BC901B8
:100A40000895CF93DF93482F50E0CA0186569F4FF9
:100A5000FC0134914A575F4FFA018491882369F170
:100A600090E0880F991FFC01E859FF4FA591B491C0
:100A7000FC01EE58FF4FC591D491662351F42FB776
:100A8000F8948C91932F909589238C938881892356
:100A90000BC0623061F42FB7F8948C91932F90952E
:100AA00089238C938881832B88832FBF06C09FB7AF
:100AB000F8948C91832B8C939FBFDF91CF910895F5
:100AC000482F50E0CA0182559F4FFC012491CA0172
:100AD00086569F4FFC0194914A575F4FFA0134911B
:100AE000332309F440C0222351F1233071F0243024
:100AF00028F42130A1F0223011F514C02630B1F0D5
:100B00002730C1F02430D9F404C0809180008F7761
:100B100003C0809180008F7D8093800010C084B5D9
:100B20008F7702C084B58F7D84BD09C08091B000ED
:100B30008F7703C08091B0008F7D8093B000E32F4A
:100B4000F0E0EE0FFF1FEE58FF4FA591B4912FB7C5
:100B5000F894662321F48C919095892302C08C919E
:100B6000892B8C932FBF0895682F70E0CB0182559D
:100B70009F4FFC012491CB0186569F4FFC0144916D
:100B80006A577F4FFB019491992319F420E030E0DC
:100B90003CC0222351F1233071F0243028F421305D
:100BA000A1F0223011F514C02630B1F02730C1F089
:100BB0002430D9F404C0809180008F7703C08091E5
:100BC00080008F7D8093800010C084B58F7702C035
:100BD00084B58F7D84BD09C08091B0008F7703C03C
:100BE0008091B0008F7D8093B000892F90E0880FB6
:100BF000991F84589F4FFC01A591B4918C9120E0DE
:100C000030E0842311F021E030E0C9010895CF9352
:100C1000DF930E94C4040E94F503C0EEDBE00E9453
:100C200048032097E1F30E94E00BF9CFE0918501A2
:100C3000F0918601A081B1812D913C91CF01F90104
:100C400009950895FC0165830895FC01828161E0A6
:100C50000E94600578940895FC01F894828160E018
:100C60000E94600508950F931F93CF93DF93EC01CB
:100C7000162F042F0E942C0610681EBD0DB407FE0F
:100C8000FDCF8EB50EBD0DB407FEFDCF8EB5CE01E6
:100C90000E942506DF91CF911F910F9108951F9318
:100CA000CF93DF93EC01162F662311F445E501C0C5
:100CB0004DE5CE016AE50E943306112311F440E7A9
:100CC00001C04CE7CE016CE50E943306DF91CF9165
:100CD0001F9108951F93CF93DF93EC01162F0E946D
:100CE0002C061F771EBD0DB407FEFDCF8EB51EBCB2
:100CF0000DB407FEFDCF1EB5CE010E942506812F43
:100D0000DF91CF911F910895CF93DF93EC016F8313
:100D1000662311F44AE101C04FE0CE0163E10E9475
:100D200033068F81882341F0CE0161E10E946A067B
:100D3000482F4F71406602C04E814068CE0161E18C
:100D40000E943306DF91CF910895CF93DF93EC019A
:100D5000662351F063E241E00E943306CE0163E274
:100D60000E946A0681FFFACFCE0164E20E946A0601
:100D7000282F30E0309521953F4F35952795C901B3
:100D8000DF91CF9108951F93CF93DF93EC01162F3E
:100D900080917C01681709F459C0623089F1633091
:100DA00030F46623E9F1613009F050C031C063309E
:100DB000A1F0643009F04AC0CE0161E00E946A06E9
:100DC000482F437E4C60CE0161E00E9433068F8144
:100DD000882381F1CE0161E010C0CE0161E00E9464
:100DE0006A06482F437E4061CE0161E00E943306CF
:100DF0008F818823F9F0CE0160E00E944F061AC06F
:100E0000CE0161E00E946A06482F437E48600EC012
:100E1000CE0161E00E946A06482F437E446006C00E
:100E2000CE0161E00E946A06482F437ECE0161E058
:100E30000E94330680917C01882331F4CE0167E261
:100E40000E946A068823B4F710937C01DF91CF914A
:100E50001F910895CF93DF93EC0180917C01833043
:100E600089F480918001882369F4CE0160E00E94BA
:100E7000A506865A9F4F34F4CE0161E00E94C30656
:100E800081E001C080E0DF91CF910895CF93DF939F
:100E9000EC0110927D0110927E0110927F01109260
:100EA00080011092810110928201109284011092AF
:100EB000830168E20E946A0682FF0AC0CE016DE3E8
:100EC0000E946A06482F4460CE016DE30E943306FB
:100ED000CE0165E240E40E943306CE0163E00E9449
:100EE000C306DF91CF9108959C01F89480917C0115
:100EF000833051F480918001882331F0C90161E091
:100F00000E94C30681E00895C9010E94460780E05F
:100F100008951F93162F0E947407882361F0809113
:100F20007E01811711F0112331F480918201882311
:100F300019F081E001C080E01F9108950F931F9385
:100F4000CF93DF93EC018B0161E00E94C306011592
:100F50001105E1F0CE010E942C068EEB8EBD0DB482
:100F600007FEFDCF8EB520E030E0F801E20FF31F61
:100F700080818EBD0DB407FEFDCF8EB52F5F3F4F34
:100F80002031310591F7CE010E942506CE016DE397
:100F90000E946A06482F4E7F80E0012B09F081E015
:100FA000482BCE016DE30E943306DF91CF911F9154
:100FB0000F910895CF93DF93EC0180917C018330F2
:100FC00009F067C0CE0168E20E946A0682FF61C034
:100FD000CE0161E00E94C306CE010E942C061EBC19
:100FE0000DB407FEFDCF8EB51EBC0DB407FEFDCFC0
:100FF0008EB58093800180918001833410F082E46B
:1010000002C080918001809380011EBC0DB407FE58
:10101000FDCF8EB580937F018D81882309F042C07A
:1010200090917F018C819817E9F180917F0188234D
:10103000C9F110928001CE010E9425063AC00DB47C
:1010400007FEFDCF8EB580937E011EBC0DB407FE5A
:10105000FDCF8EB5982F9078909382018074809305
:10106000810190E00BC01EBC0DB407FEFDCF8EB514
:10107000E92FF0E0E15CFE4F80839F5F80917D016E
:10108000981788F3CE010E942506CE0163E00E94E6
:10109000C306CE0160E00E94A50690938401809370
:1010A000830107C080918001835080937D011EBC25
:1010B000C6CFDF91CF910895CF92DF92EF92FF924A
:1010C0000F931F93CF93DF93EC01F62ED42EC52EF2
:1010D000122F61E00E94C306CE0167E20E946A06F9
:1010E00087FFFACFCE0165E240E00E9433061E334F
:1010F00008F01DE3CE010E942C0680E88EBD0DB4E1
:1011000007FEFDCF8EB51D5F1EBD13500DB407FE4B
:10111000FDCF8EB5FEBC0DB407FEFDCF8EB58C8124
:101120008EBD0DB407FEFDCF8EB5EE2031F080E808
:101130008EBD0DB407FEFDCF07C0002361F080E433
:101140008EBD0DB407FEFDCF8EB58D2D9C2D9C015F
:10115000F90190E00DC01EBC0DB407FEFDCFF4CF29
:1011600080818EBD0DB407FEFDCF8EB59F5F319699
:101170009117B0F3CE010E942506CE0164E00E94D3
:10118000C3068B810E94B405892BD9F3CE0161E09F
:101190000E94C306DF91CF911F910F91FF90EF90B6
:1011A000DF90CF900895DF92EF92FF920F931F93FD
:1011B000CF93DF93EC01162F7A01D22E6DE30E94BC
:1011C0006A06482F4460CE016DE30E94330603C0D7
:1011D000CE010E947407CE010E942A078823C1F322
:1011E000CE01612FA7012D2DEE240E945C08DF9116
:1011F000CF911F910F91FF90EF90DF9008954F9244
:101200005F926F927F928F929F92AF92BF92CF9296
:10121000DF92EF92FF920F931F93CF93DF93EC0136
:10122000862E3A01422E502E9924AE2CBB24CC247B
:10123000DD24CE01682DA301242D01E00E94D308F6
:101240000E945D047B018C0108C0CE01682D0E94C4
:101250008907882311F081E00FC00E945D046E1998
:101260007F09800B910B6A157B058C059D0568F342
:1012700093945914F0F680E0DF91CF911F910F9174
:10128000FF90EF90DF90CF90BF90AF909F908F90A6
:101290007F906F905F904F900895CF92DF92EF9282
:1012A000FF920F931F93DF93CF93CDB7DEB7AA972B
:1012B0000FB6F894DEBF0FBECDBF7C01042F522FB6
:1012C0006F3119F430EC4EE40EC06B3211F44CE681
:1012D000C6C0663509F0BFC049ED04C0663511F0DF
:1012E00030EC01C030E0FE0131968AE2DF011D9250
:1012F0008A95E9F781E0898394E09A8382E08B8381
:1013000023E02D838E839F8390E4988785E08987EF
:101310002A8786E08B8783E38C8787E08D8788E048
:101320008F8789E0898B89E18B8B22E42C8B85E286
:101330008D8B9E8B89E28F8B8CED888F8EE2898FCF
:1013400088E88A8F8FE28B8F8DE28C8F90E39D8F60
:1013500087E38F8F80E988A388E389A32AA38CE39E
:101360008BA38FE88CA38DE38DA382E18EA38FE600
:101370008FA398A78FEF89A74E87388B5E8FF701D1
:10138000828161E00E94210580E00E94610D81E080
:101390000E94580D84E00E94660D0E94770DC701DF
:1013A0006FE24AEA0E943306C7016FE20E946A06B2
:1013B0008A3AA9F7C7016FE245E50E943306C701E3
:1013C0006FE20E946A068535A9F710E06E01089465
:1013D000C11CD11C05C0C70141810E9433061F5F9B
:1013E000E12FF0E0EE0FFF1FEC0DFD1D60816F3F60
:1013F00091F7C70160E070E00E949E07C701D70126
:1014000017966C910E948406C70161E00E94C30692
:10141000C70167E20E946A0687FFFACF80E066E1B3
:1014200076E043E050E00E94270BF0928601E092C4
:101430008501F701048381E0AA960FB6F894DEBF18
:101440000FBECDBFCF91DF911F910F91FF90EF9015
:10145000DF90CF90089544EE6B3209F03FCF30E437
:1014600042CF8F929F92AF92BF92CF92DF92EF9234
:10147000FF920F931F93DF93CF93CDB7DEB7211564
:10148000310511F0F0E021C08091B10081FF02C070
:10149000F4E001C0F0E08091B10080FDF260809145
:1014A000B1008091B1008B7F8093B1008091B10039
:1014B0008D7F8093B1008091B1008E7F8093B100C9
:1014C000809164008064809364004115510551F45B
:1014D00080917A008F7780937A0080916400816098
:1014E000809364000115110529F4809164008860DF
:1014F00080936400E114F10429F480916400806217
:1015000080936400C114D10429F480916400846044
:1015100080936400A114B10429F480916400826076
:10152000809364008114910429F4809164008068A0
:10153000809364006A307105B9F063FD02C0E8E091
:1015400001C0E8E2862F8770E82B88E190E00FB6B3
:10155000F894A895809360000FBEE093600080919E
:10156000600080648093600083B7817F83BFF894BC
:1015700083B7816083BF7894889583B78E7F83BF5C
:101580007894452B51F4809164008E7F80936400A1
:1015900080917A00806880937A00232BA1F49F2F9A
:1015A000F1FF05C08091B10084608093B10090FF8D
:1015B00005C08091B10082608093B1008091640089
:1015C0008F7B80936400012B29F480916400877FD6
:1015D00080936400EF2829F4809164008F7D8093CC
:1015E0006400CD2829F4809164008B7F809364008F
:1015F000AB2829F4809164008D7F80936400892852
:1016000029F4809164008F7780936400CF91DF91FB
:101610001F910F91FF90EF90DF90CF90BF90AF9010
:101620009F908F9008951F920F920FB60F921124E2
:101630008F9388E10FB6F894809360001092600059
:101640000FBE8F910F900FBE0F901F901895823094
:1016500000F5E82FF0E0EE0FFF1FE857FE4F718313
:101660006083882319F08130A1F408C0809169005B
:101670008C7F842B80936900E89A0895809169009B
:10168000440F551F440F551F837F842B809369009F
:10169000E99A08951F920F920FB60F9211242F937B
:1016A0003F934F935F936F937F938F939F93AF93EA
:1016B000BF93EF93FF938091880190918901892BCB
:1016C00029F0E0918801F09189010995FF91EF914E
:1016D000BF91AF919F918F917F916F915F914F914A
:1016E0003F912F910F900FBE0F901F9018951F9252
:1016F0000F920FB60F9211242F933F934F935F9346
:101700006F937F938F939F93AF93BF93EF93FF93C9
:1017100080918A0190918B01892B29F0E0918A01B7
:10172000F0918B010995FF91EF91BF91AF919F913E
:101730008F917F916F915F914F913F912F910F907A
:101740000FBE0F901F90189508951F920F920FB61D
:101750000F9211242F933F934F938F939F93EF9367
:10176000FF938091C00082FD1DC04091C600209172
:10177000CC013091CD012F5F3F4F2F73307080919E
:10178000CE019091CF012817390771F0E091CC017B
:10179000F091CD01E457FE4F40833093CD0120936B
:1017A000CC0102C08091C600FF91EF919F918F9173
:1017B0004F913F912F910F900FBE0F901F90189552
:1017C000E0912002F0912102E05CFF4F8191919124
:1017D00020813181821B930B8F739070892B11F0C4
:1017E0000E94A40B08951F920F920FB60F9211241E
:1017F0002F933F938F939F93EF93FF93209110022A
:10180000309111028091120290911302281739072A
:1018100031F48091C1008F7D8093C10014C0E091AC
:101820001202F0911302E053FE4F208180911202C8
:101830009091130201968F7390709093130280938E
:1018400012022093C600FF91EF919F918F913F91DB
:101850002F910F900FBE0F901F901895DC011C96D2
:10186000ED91FC911D97E05CFF4F219131918081BA
:101870009181281B390B2F733070C9010895DC0149
:101880001C96ED91FC911D97E05CFF4F208131810A
:10189000E054F040DF01AE5BBF4F8D919C911197FA
:1018A0002817390719F42FEF3FEF07C08D919C914E
:1018B000E80FF91F8081282F30E0C9010895DC016D
:1018C0001C96ED91FC911D97E05CFF4F20813181CA
:1018D000E054F040DF01AE5BBF4F8D919C911197BA
:1018E0002817390719F42FEF3FEF10C08D919C9105
:1018F0001197E80FF91F20818D919C911197019606
:101900008F73907011969C938E9330E0C901089567
:10191000DC0191968C919197882339F05496ED9142
:10192000FC915597808186FFF9CF91961C9208957E
:10193000CF93DF93EC01EE85FF85E05CFF4F2081C4
:101940003181E054F0402F5F3F4F2F733070DF0143
:10195000AE5BBF4F8D919C91119728173907D1F33A
:10196000E05CFF4F80819181E054F040E80FF91F67
:101970006083EE85FF85E05CFF4F31832083EE8935
:10198000FF89208181E090E00F8C02C0880F991FB1
:101990000A94E2F7282B208381E089A3EC89FD8952
:1019A00080818064808381E090E0DF91CF91089511
:1019B000109217021092160288EE93E0A0E0B0E0B9
:1019C0008093180290931902A0931A02B0931B02FD
:1019D0008EE091E090931502809314028CE891E0E0
:1019E000909321028093200280ED91E09093230256
:1019F0008093220285EC90E090932502809324024C
:101A000084EC90E0909327028093260280EC90E093
:101A1000909329028093280281EC90E090932B020E
:101A200080932A0282EC90E090932D0280932C0206
:101A300086EC90E090932F0280932E0284E08093B6
:101A4000300283E08093310287E08093320285E0A8
:101A50008093330281E0809334020895CF92DF9225
:101A6000EF92FF920F931F93CF93DF937C016B0153
:101A70008A01C0E0D0E00FC0D6016D916D01D701A1
:101A8000ED91FC910190F081E02DC7010995C80FFF
:101A9000D91F015010400115110571F7CE01DF91DA
:101AA000CF911F910F91FF90EF90DF90CF9008950D
:101AB000882319F48CB5806202C08CB58F7D8CBDF3
:101AC00008959CB5937F982B9CBD08952CB5382F15
:101AD00033702C7F322B3CBD2DB590E095958795CA
:101AE0009595879581702E7F822B8DBD08958AE014
:101AF00061E00E9460058AE061E00E9421058CB5EA
:101B000080618CBD8CB580648CBD8DE061E00E94ED
:101B100021058BE061E00E94210508955058BB2704
:101B2000AA270ED04DC13ED130F043D120F031F480
:101B30009F3F11F41EF433C10EF4E095E7FB29C179
:101B4000E92F4FD180F3BA1762077307840795070F
:101B500018F071F49EF567C10EF4E0950B2EBA2FC4
:101B6000A02D0B01B90190010C01CA01A0011124A3
:101B7000FF27591B99F0593F50F4503E68F11A164F
:101B8000F040A22F232F342F4427585FF3CF4695E0
:101B900037952795A795F0405395C9F77EF41F1602
:101BA000BA0B620B730B840BBAF09150A1F0FF0FCC
:101BB000BB1F661F771F881FC2F70EC0BA0F621FB8
:101BC000731F841F48F4879577956795B795F795A8
:101BD0009E3F08F0B3CF9395880F08F09927EE0F3A
:101BE0009795879508950CD0EBC0E3D040F0DAD0FC
:101BF00030F021F45F3F19F0CCC0511115C1CFC0B6
:101C0000F0D098F39923C9F35523B1F3951B550BE5
:101C1000BB27AA2762177307840738F09F5F5F4FBF
:101C2000220F331F441FAA1FA9F333D00E2E3AF000
:101C3000E0E830D091505040E695001CCAF729D01A
:101C4000FE2F27D0660F771F881FBB1F2617370769
:101C50004807AB07B0E809F0BB0B802DBF01FF2799
:101C600093585F4F2AF09E3F510568F092C0DCC048
:101C70005F3FECF3983EDCF3869577956795B795D3
:101C8000F7959F5FC9F7880F911D9695879597F9EE
:101C90000895E1E0660F771F881FBB1F6217730767
:101CA0008407BA0720F0621B730B840BBA0BEE1F7C
:101CB00088F7E095089504D06894B111B5C00895EF
:101CC00098D088F09F5790F0B92F9927B751A0F07E
:101CD000D1F0660F771F881F991F1AF0BA95C9F7C0
:101CE00012C0B13081F09FD0B1E008959CC0672F41
:101CF000782F8827B85F39F0B93FCCF38695779570
:101D00006795B395D9F73EF4909580957095619558
:101D10007F4F8F4F9F4F0895E89409C097FB3EF483
:101D200090958095709561957F4F8F4F9F4F992328
:101D3000A9F0F92F96E9BB279395F69587957795A6
:101D40006795B795F111F8CFFAF4BB0F11F460FF66
:101D50001BC06F5F7F4F8F4F9F4F16C0882311F0BE
:101D600096E911C0772321F09EE8872F762F05C0D2
:101D7000662371F096E8862F70E060E02AF09A956D
:101D8000660F771F881FDAF7880F9695879597F962
:101D9000089597F99F6780E870E060E008959FEFED
:101DA00080EC089500240A941616170618060906F2
:101DB000089500240A9412161306140605060895C1
:101DC000092E0394000C11F4882352F0BB0F40F449
:101DD000BF2B11F460FF04C06F5F7F4F8F4F9F4F89
:101DE000089557FD9058440F551F59F05F3F71F00B
:101DF0004795880F97FB991F61F09F3F79F0879572
:101E00000895121613061406551FF2CF4695F1DFFA
:101E100008C0161617061806991FF1CF869571058A
:101E2000610508940895E894BB2766277727CB01BE
:101E300097F908950BD0C4CFB5DF28F0BADF18F0BA
:101E4000952309F0A6CFABCF1124EECFCADFA0F3C4
:101E5000959FD1F3950F50E0551F629FF001729F3F
:101E6000BB27F00DB11D639FAA27F00DB11DAA1F5E
:101E7000649F6627B00DA11D661F829F2227B00DAB
:101E8000A11D621F739FB00DA11D621F839FA00D36
:101E9000611D221F749F3327A00D611D231F849F86
:101EA000600D211D822F762F6A2F11249F575040DD
:101EB0008AF0E1F088234AF0EE0FFF1FBB1F661F78
:101EC000771F881F91505040A9F79E3F510570F031
:101ED00060CFAACF5F3FECF3983EDCF38695779511
:101EE0006795B795F795E7959F5FC1F7FE2B880F2C
:101EF000911D9695879597F908952F923F924F924D
:101F00005F926F927F928F929F92AF92BF92CF9289
:101F1000DF92EF92FF920F931F93CF93DF93CDB792
:101F2000DEB7CA1BDB0B0FB6F894DEBF0FBECDBF0A
:101F300009942A88398848885F846E847D848C84DB
:101F40009B84AA84B984C884DF80EE80FD800C81E4
:101F50001B81AA81B981CE0FD11D0FB6F894DEBFC7
:101F60000FBECDBFED010895EE0FFF1F0590F49158
:081F7000E02D0994F894FFCF65
:101F78002564000100000000DA0700000000980C4A
:0A1F88002E0D2E0C5F0C3F0C880C90
:00000001FF
