:100000000C9436000C945E000C945E000C945E0020
:100010000C945E000C945E000C945E000C945E00E8
:100020000C945E000C945E000C945E000C945E00D8
:100030000C945E000C945E000C945E000C945E00C8
:100040000C9409010C945E000C9408020C94560266
:100050000C945E000C945E000C945E000C945E00A8
:100060000C945E000C945E006300C20311241FBE5A
:10007000CFEFD8E0DEBFCDBF11E0A0E0B1E0E2EC11
:10008000F1E102C005900D92AA34B107D9F711E051
:10009000AAE4B1E001C01D92AF3FB107E1F710E063
:1000A000CCE6D0E004C02297FE010E94DB08C836EF
:1000B000D107C9F70E942E060C9460000C94000032
:1000C000F8940C94DF088AE491E064E070E00E9408
:1000D0003D060895AF92BF92CF92DF92EF92FF92CA
:1000E0000F931F9384E00E94E5019C01220F331FB0
:1000F000220F331F280F391F442737FD4095542FF7
:10010000CA01B9010E947D0720E030E040E85AE3CF
:100110000E94310820E030E040E05FE30E94790671
:100120002AE037ED43E25CE30E94E2067B018C01AA
:100130009DEDC92E91E0D92EC60160E071E00E94CC
:100140003105C601B801A70122E030E00E9418067F
:10015000C6016DE071E00E943105C801B70126E6D5
:1001600036E646EE5FE30E94310820E030E040E0F2
:1001700052E40E947A06AB01BC01C60122E030E0E5
:100180000E941B068AE4A82E81E0B82EC5010E94B9
:100190005B067B018C01C6016BE171E00E943105B9
:1001A000C601B801A70122E030E00E941806C5018F
:1001B0000E946A067B018C01C60163E271E00E9425
:1001C0003105C601B801A70122E030E00E941B06FC
:1001D00060ED77E080E090E00E945101C6010E944E
:1001E00042041F910F91FF90EF90DF90CF90BF904E
:1001F000AF9008958DED91E040E855E260E070E049
:100200000E94910268EE73E080E090E00E9451014C
:1002100008951F920F920FB60F9211242F933F93C0
:100220008F939F93AF93BF93809150019091510111
:10023000A0915201B0915301309154010196A11D3A
:10024000B11D232F2D5F2D3720F02D570196A11DB5
:10025000B11D209354018093500190935101A093BC
:100260005201B093530180914C0190914D01A091A6
:100270004E01B0914F010196A11DB11D80934C011B
:1002800090934D01A0934E01B0934F01BF91AF9158
:100290009F918F913F912F910F900FBE0F901F90C4
:1002A00018959B01AC017FB7F89480914C01909117
:1002B0004D01A0914E01B0914F0166B5A89B05C0BC
:1002C0006F3F19F00196A11DB11D7FBFBA2FA92F55
:1002D000982F8827860F911DA11DB11D62E0880F00
:1002E000991FAA1FBB1F6A95D1F7BC012DC0FFB78C
:1002F000F89480914C0190914D01A0914E01B091E4
:100300004F01E6B5A89B05C0EF3F19F00196A11D6E
:10031000B11DFFBFBA2FA92F982F88278E0F911DCF
:10032000A11DB11DE2E0880F991FAA1FBB1FEA950E
:10033000D1F7861B970B885E9340C8F2215030405E
:100340004040504068517C4F211531054105510511
:1003500071F60895789484B5826084BD84B5816017
:1003600084BD85B5826085BD85B5816085BDEEE6BD
:10037000F0E0808181608083E1E8F0E0108280819C
:1003800082608083808181608083E0E8F0E080810A
:1003900081608083E1EBF0E0808184608083E0EB2A
:1003A000F0E0808181608083EAE7F0E08081846012
:1003B000808380818260808380818160808380816E
:1003C000806880831092C1000895982F8E3008F0C5
:1003D0009E509770809139018295880F880F807C9C
:1003E000892B80937C0080917A00806480937A00CE
:1003F00080917A0086FDFCCF2091780040917900B1
:10040000942F80E030E0282B392BC90108950895FE
:100410001F920F920FB60F9211242F933F934F9379
:100420008F939F93EF93FF938091C00082FD1DC037
:100430004091C60020919501309196012F5F3F4F6A
:100440002F73307080919701909198012817390788
:1004500071F0E0919501F0919601EB5AFE4F4083C7
:10046000309396012093950102C08091C600FF91C0
:10047000EF919F918F914F913F912F910F900FBED0
:100480000F901F901895E091E901F091EA01E05C6E
:10049000FF4F8191919120813181821B930B8F734A
:1004A0009070892B11F00E94070208951F920F92FD
:1004B0000FB60F9211242F933F938F939F93EF9337
:1004C000FF932091D9013091DA018091DB01909165
:1004D000DC012817390731F48091C1008F7D8093AA
:1004E000C10014C0E091DB01F091DC01E756FE4F42
:1004F00020818091DB019091DC0101968F739070D7
:100500009093DC018093DB012093C600FF91EF9173
:100510009F918F913F912F910F900FBE0F901F9041
:100520001895AF92BF92DF92EF92FF920F931F93B5
:10053000CF93DF93EC017A018B01DD24403081EE13
:10054000580780E0680780E0780711F0DD24D39435
:1005500091E0A92EB12CEC89FD89DD2069F0C5015F
:1005600008A002C0880F991F0A94E2F7808360E018
:1005700079E08DE390E005C0108260E874E88EE1D8
:1005800090E0A80197010E94B708215030404040F8
:100590005040569547953795279580E1203038078C
:1005A00020F0DD2011F0DD24D6CFE889F9893083F1
:1005B000EA89FB89208319A2EE89FF89408121E025
:1005C00030E0C9010C8C02C0880F991F0A94E2F731
:1005D000482B4083EE89FF894081C9010D8C02C000
:1005E000880F991F0A94E2F7482B4083EE89FF8910
:1005F0004081C9010E8C02C0880F991F0A94E2F74E
:10060000482B4083EE89FF8980810F8C02C0220F26
:10061000331F0A94E2F7209528232083DF91CF919E
:100620001F910F91FF90EF90DF90BF90AF900895D2
:10063000DC011C96ED91FC911D97E05CFF4F219130
:10064000319180819181281B390B2F733070C90142
:100650000895DC011C96ED91FC911D97E05CFF4F25
:1006600020813181E054F040DF01AE5BBF4F8D91BE
:100670009C9111972817390719F42FEF3FEF07C006
:100680008D919C91E80FF91F8081282F30E0C901DE
:100690000895DC011C96ED91FC911D97E05CFF4FE5
:1006A00020813181E054F040DF01AE5BBF4F8D917E
:1006B0009C9111972817390719F42FEF3FEF10C0BD
:1006C0008D919C911197E80FF91F20818D919C913C
:1006D000119701968F73907011969C938E9330E0D2
:1006E000C9010895DC0191968C919197882339F086
:1006F0005496ED91FC915597808186FFF9CF9196A4
:100700001C920895CF93DF93EC01EE85FF85E05CAA
:10071000FF4F20813181E054F0402F5F3F4F2F7316
:100720003070DF01AE5BBF4F8D919C911197281700
:100730003907D1F3E05CFF4F80819181E054F040B4
:10074000E80FF91F6083EE85FF85E05CFF4F318382
:100750002083EE89FF89208181E090E00F8C02C028
:10076000880F991F0A94E2F7282B208381E089A340
:10077000EC89FD8980818064808381E090E0DF9155
:10078000CF9108951092E0011092DF0188EE93E07E
:10079000A0E0B0E08093E1019093E201A093E30137
:1007A000B093E4018EE391E09093DE018093DD014C
:1007B00085E591E09093EA018093E90189E991E070
:1007C0009093EC018093EB0185EC90E09093EE0127
:1007D0008093ED0184EC90E09093F0018093EF0121
:1007E00080EC90E09093F2018093F10181EC90E035
:1007F0009093F4018093F30182EC90E09093F601E2
:100800008093F50186EC90E09093F8018093F701D6
:1008100084E08093F90183E08093FA0187E080937C
:10082000FB0185E08093FC0181E08093FD01089548
:10083000CF92DF92EF92FF920F931F93CF93DF93AC
:100840007C016B018A01C0E0D0E00FC0D6016D9140
:100850006D01D701ED91FC910190F081E02DC70170
:100860000995C80FD91F015010400115110571F7E6
:10087000CE01DF91CF911F910F91FF90EF90DF900C
:10088000CF900895EF92FF920F931F938C01DC019C
:10089000ED91FC910190F081E02D6DE009957C01D6
:1008A000D801ED91FC910190F081E02DC8016AE042
:1008B00009959C012E0D3F1DC9011F910F91FF90BD
:1008C000EF900895CF93DF93EC016115710519F452
:1008D00020E030E00FC0DB010D900020E9F7119718
:1008E000A61BB70BE881F9810280F381E02DAD01F1
:1008F00009959C01C901DF91CF9108954F925F92B4
:100900007F928F929F92AF92BF92CF92DF92EF929F
:10091000FF920F931F93DF93CF93CDB7DEB7A197CD
:100920000FB6F894DEBF0FBECDBF2C01742ECB01E5
:10093000223008F42AE019A231E2C32ED12CCC0EC9
:10094000DD1E822E9924AA24BB24672D752FA501B4
:1009500094010E94B70879018A01C801B701A50175
:1009600094010E949808472D461B0894C108D1089D
:100970004A3014F4405D01C0495CF6014083E11443
:10098000F1040105110521F07E2C5F2DC801DDCF9A
:10099000C201B6010E946204A1960FB6F894DEBFB0
:1009A0000FBECDBFCF91DF911F910F91FF90EF90C0
:1009B000DF90CF90BF90AF909F908F907F905F908F
:1009C0004F900895DC012115310541F4ED91FC9122
:1009D0000190F081E02D642F099508950E947E0416
:1009E0000895CF92DF92EF92FF920F931F93CF93D0
:1009F000DF93EC016A017B012115310541F4E881A7
:100A0000F9810190F081E02D642F09951FC02A30F3
:100A10003105D1F477FF17C0E881F9810190F081A9
:100A2000E02D6DE209958C0144275527BA014C1938
:100A30005D096E097F09CE012AE00E947E049801BB
:100A4000280F391F04C02AE00E947E049C01C901BE
:100A5000DF91CF911F910F91FF90EF90DF90CF909A
:100A600008950E94620408957F928F929F92AF92A0
:100A7000BF92CF92DF92EF92FF920F931F93CF938B
:100A8000DF934C017A018B01722ECB01BA01A801D0
:100A900097010E949408882321F0C4016BE271E061
:100AA00021C0C0E0D0E057016801E894D7F8C60142
:100AB000B5012FEF3FEF4FE75FE70E9494088823CF
:100AC00051F4C601B5012FEF3FEF4FE75FE70E94FA
:100AD000DE06181614F0C1E0D0E0219739F0C40109
:100AE0006FE271E00E946204EC0193C0C801B7019B
:100AF0002FEF3FEF4FE75FE40E942D08181654F0E8
:100B0000C801B7012FEF3FEF4FE75FEC0E94DE0611
:100B1000882324F4C40163E371E0E4CFC801B70182
:100B200020E030E040E050E00E94DE0687FD03C098
:100B3000C0E0D0E00EC0D401ED91FC910190F081B5
:100B4000E02DC4016DE20995EC0117FB109517F932
:100B5000109520E030E040E05FE3DD240BC0CA01E7
:100B6000B90120E030E040E251E40E94E2069B013E
:100B7000AC01D394D71498F3C801B7010E947A0648
:100B80005B016C010E944F077B018C01C401B8011D
:100B9000A7012AE030E00E94E204C80FD91F7720A5
:100BA00039F0C40167E371E00E946204C80FD91FE5
:100BB000C801B7010E947B079B01AC01C601B501CA
:100BC0000E94790624C020E030E040E251E40E9417
:100BD00031087B018C010E944A075B016C01CC2427
:100BE000B7FCC094DC2CC401B601A5012AE030E0BA
:100BF0000E94F104C80FD91FC601B5010E947D07EC
:100C00009B01AC01C801B7010E9479067A94772054
:100C1000D1F6CE01DF91CF911F910F91FF90EF9010
:100C2000DF90CF90BF90AF909F908F907F9008956E
:100C30000E9434050895EF92FF920F931F937C0159
:100C40000E9434058C01C7010E944204080F191F3D
:100C5000C8011F910F91FF90EF900895CF93DF93FC
:100C60000E94AA010E94FA00C3E4D2E00E946A0036
:100C70002097E1F30E944302F9CFFC017183608366
:100C80000895FC0180810E94E5019C01220F331F21
:100C9000220F331F280F391F442737FD4095542F4B
:100CA000CA01B9010E947D0720E030E040E85AE324
:100CB0000E94310808950E94410620E030E040E0A3
:100CC0005FE30E9479062AE037ED43E25CE30E948D
:100CD000E20608950E945B0626E636E646EE5FE3EE
:100CE0000E94310820E030E040E052E40E947A06A1
:100CF00008955058BB27AA270ED075C166D130F091
:100D00006BD120F031F49F3F11F41EF45BC10EF45F
:100D1000E095E7FB51C1E92F77D180F3BA1762075D
:100D200073078407950718F071F49EF58FC10EF4D0
:100D3000E0950B2EBA2FA02D0B01B90190010C01EB
:100D4000CA01A0011124FF27591B99F0593F50F403
:100D5000503E68F11A16F040A22F232F342F44275B
:100D6000585FF3CF469537952795A795F040539553
:100D7000C9F77EF41F16BA0B620B730B840BBAF023
:100D80009150A1F0FF0FBB1F661F771F881FC2F78E
:100D90000EC0BA0F621F731F841F48F487957795A2
:100DA0006795B795F7959E3F08F0B3CF9395880F59
:100DB00008F09927EE0F979587950895D9D008F4F4
:100DC00081E008950CD00FC107D140F0FED030F083
:100DD00021F45F3F19F0F0C0511139C1F3C014D1B3
:100DE00098F39923C9F35523B1F3951B550BBB27F2
:100DF000AA2762177307840738F09F5F5F4F220F9F
:100E0000331F441FAA1FA9F333D00E2E3AF0E0E897
:100E100030D091505040E695001CCAF729D0FE2FE3
:100E200027D0660F771F881FBB1F26173707480775
:100E3000AB07B0E809F0BB0B802DBF01FF2793582B
:100E40005F4F2AF09E3F510568F0B6C000C15F3F7A
:100E5000ECF3983EDCF3869577956795B795F79513
:100E60009F5FC9F7880F911D9695879597F908950B
:100E7000E1E0660F771F881FBB1F621773078407A7
:100E8000BA0720F0621B730B840BBA0BEE1F88F7B6
:100E9000E095089504D06894B111D9C00895BCD0EC
:100EA00088F09F5790F0B92F9927B751A0F0D1F053
:100EB000660F771F881F991F1AF0BA95C9F712C0DD
:100EC000B13081F0C3D0B1E00895C0C0672F782F52
:100ED0008827B85F39F0B93FCCF386957795679549
:100EE000B395D9F73EF490958095709561957F4FB5
:100EF0008F4F9F4F0895E89409C097FB3EF490955B
:100F00008095709561957F4F8F4F9F4F9923A9F0E2
:100F1000F92F96E9BB279395F69587957795679571
:100F2000B795F111F8CFFAF4BB0F11F460FF1BC0B5
:100F30006F5F7F4F8F4F9F4F16C0882311F096E948
:100F400011C0772321F09EE8872F762F05C06623F6
:100F500071F096E8862F70E060E02AF09A95660FAF
:100F6000771F881FDAF7880F9695879597F9089568
:100F7000990F0008550FAA0BE0E8FEEF16161706AA
:100F8000E807F907C0F012161306E407F50798F012
:100F9000621B730B840B950B39F40A2661F0232B2B
:100FA000242B252B21F408950A2609F4A140A695A7
:100FB0008FEF811D811D089597F99F6780E870E08C
:100FC00060E008959FEF80EC089500240A941616BF
:100FD000170618060906089500240A941216130627
:100FE000140605060895092E0394000C11F48823B5
:100FF00052F0BB0F40F4BF2B11F460FF04C06F5FD1
:101000007F4F8F4F9F4F089557FD9058440F551FA6
:1010100059F05F3F71F04795880F97FB991F61F07A
:101020009F3F79F087950895121613061406551FF1
:10103000F2CF4695F1DF08C0161617061806991F5D
:10104000F1CF86957105610508940895E894BB2752
:1010500066277727CB0197F908958ADF08F48FEF89
:1010600008950BD0C0CFB1DF28F0B6DF18F095237C
:1010700009F0A2CFA7CF1124EACFC6DFA0F3959F36
:10108000D1F3950F50E0551F629FF001729FBB276F
:10109000F00DB11D639FAA27F00DB11DAA1F649F1B
:1010A0006627B00DA11D661F829F2227B00DA11DCE
:1010B000621F739FB00DA11D621F839FA00D611D54
:1010C000221F749F3327A00D611D231F849F600D75
:1010D000211D822F762F6A2F11249F5750408AF0AE
:1010E000E1F088234AF0EE0FFF1FBB1F661F771F3A
:1010F000881F91505040A9F79E3F510570F05CCF7A
:10110000A6CF5F3FECF3983EDCF386957795679525
:10111000B795F795E7959F5FC1F7FE2B880F911D57
:101120009695879597F9089523DF880B990B089575
:10113000629FD001739FF001829FE00DF11D649FBB
:10114000E00DF11D929FF00D839FF00D749FF00D47
:10115000659FF00D9927729FB00DE11DF91F639FE8
:10116000B00DE11DF91FBD01CF0111240895A1E2C9
:101170001A2EAA1BBB1BFD010DC0AA1FBB1FEE1F11
:10118000FF1FA217B307E407F50720F0A21BB30B5C
:10119000E40BF50B661F771F881F991F1A9469F7D8
:1011A00060957095809590959B01AC01BD01CF0134
:1011B0000895EE0FFF1F0590F491E02D0994F89427
:0211C000FFCF5F
:1011C2004F726967696E616C20433A2000204F724A
:1011D2006967696E616C20463A20004E657720434C
:1011E2003A2000204E657720463A006E616E006913
:1011F2006E66006F7666002E00010000000082031A
:0A12020018041803490329037203BE
:00000001FF
